{
  "_format": "hh-sol-artifact-1",
  "contractName": "DocumentRegistry",
  "sourceName": "contracts/DocumentRegistry.sol",
  "abi": [
    {
      "inputs": [],
      "name": "getAllDocument",
      "outputs": [
        {
          "internalType": "bytes32[]",
          "name": "docHash",
          "type": "bytes32[]"
        }
      ],
      "stateMutability": "view",
      "type": "function"
    },
    {
      "inputs": [],
      "name": "getAllUsers",
      "outputs": [
        {
          "internalType": "address[]",
          "name": "users",
          "type": "address[]"
        }
      ],
      "stateMutability": "view",
      "type": "function"
    },
    {
      "inputs": [
        {
          "internalType": "bytes32",
          "name": "docHash",
          "type": "bytes32"
        }
      ],
      "name": "getCipherKey",
      "outputs": [
        {
          "internalType": "string",
          "name": "cipherKey",
          "type": "string"
        }
      ],
      "stateMutability": "view",
      "type": "function"
    },
    {
      "inputs": [
        {
          "internalType": "bytes32",
          "name": "documentHash",
          "type": "bytes32"
        }
      ],
      "name": "getDocument",
      "outputs": [
        {
          "components": [
            {
              "internalType": "string",
              "name": "documentLocation",
              "type": "string"
            },
            {
              "internalType": "bytes32",
              "name": "documentHash",
              "type": "bytes32"
            },
            {
              "internalType": "string[]",
              "name": "key",
              "type": "string[]"
            },
            {
              "internalType": "address[]",
              "name": "users",
              "type": "address[]"
            }
          ],
          "internalType": "struct DocumentRegistry.Document",
          "name": "document",
          "type": "tuple"
        }
      ],
      "stateMutability": "view",
      "type": "function"
    },
    {
      "inputs": [
        {
          "internalType": "address",
          "name": "userAddress",
          "type": "address"
        }
      ],
      "name": "getPublicKey",
      "outputs": [
        {
          "internalType": "string",
          "name": "publicKey",
          "type": "string"
        }
      ],
      "stateMutability": "view",
      "type": "function"
    },
    {
      "inputs": [
        {
          "internalType": "string",
          "name": "userName",
          "type": "string"
        },
        {
          "internalType": "string",
          "name": "userEmail",
          "type": "string"
        },
        {
          "internalType": "string",
          "name": "publicKey",
          "type": "string"
        },
        {
          "internalType": "enum DocumentRegistry.UserType",
          "name": "userType",
          "type": "uint8"
        }
      ],
      "name": "registerUser",
      "outputs": [],
      "stateMutability": "nonpayable",
      "type": "function"
    },
    {
      "inputs": [
        {
          "internalType": "address",
          "name": "",
          "type": "address"
        }
      ],
      "name": "storeUser",
      "outputs": [
        {
          "internalType": "string",
          "name": "name",
          "type": "string"
        },
        {
          "internalType": "string",
          "name": "email",
          "type": "string"
        },
        {
          "internalType": "bool",
          "name": "status",
          "type": "bool"
        },
        {
          "internalType": "string",
          "name": "publicKey",
          "type": "string"
        },
        {
          "internalType": "enum DocumentRegistry.UserType",
          "name": "userType",
          "type": "uint8"
        }
      ],
      "stateMutability": "view",
      "type": "function"
    },
    {
      "inputs": [
        {
          "internalType": "string",
          "name": "key",
          "type": "string"
        }
      ],
      "name": "updatePublicKey",
      "outputs": [],
      "stateMutability": "nonpayable",
      "type": "function"
    },
    {
      "inputs": [
        {
          "internalType": "bytes32",
          "name": "documentHash",
          "type": "bytes32"
        },
        {
          "internalType": "string",
          "name": "documentLocation",
          "type": "string"
        },
        {
          "internalType": "string[]",
          "name": "key",
          "type": "string[]"
        },
        {
          "internalType": "address[]",
          "name": "users",
          "type": "address[]"
        }
      ],
      "name": "uploadDocument",
      "outputs": [],
      "stateMutability": "nonpayable",
      "type": "function"
    }
  ],
  "bytecode": "0x608060405234801561001057600080fd5b506113b9806100206000396000f3fe608060405234801561001057600080fd5b50600436106100935760003560e01c8063af045d6c11610066578063af045d6c146100fc578063b10d6b4114610111578063d00f74c514610131578063d7cab33814610144578063e2842d791461016857610093565b80630f771417146100985780631dc6fa5e146100ad57806369b4da2d146100c0578063857cdbb8146100d3575b600080fd5b6100ab6100a636600461106e565b61017d565b005b6100ab6100bb366004611033565b6102d8565b6100ab6100ce366004610f54565b610300565b6100e66100e1366004610f1a565b6103f9565b6040516100f391906111ed565b60405180910390f35b6101046104a5565b6040516100f391906111a9565b61012461011f366004610f3c565b610508565b6040516100f39190611292565b6100e661013f366004610f3c565b610700565b610157610152366004610f1a565b61096d565b6040516100f3959493929190611200565b610170610b4e565b6040516100f39190611196565b3360009081526020819052604090206002015460ff16156101b95760405162461bcd60e51b81526004016101b09061125d565b60405180910390fd5b3360009081526020818152604090912085516101d792870190610c16565b503360009081526020818152604090912084516101fc92600190920191860190610c16565b5033600090815260208181526040909120835161022192600390920191850190610c16565b50336000908152602081905260409020600281018054600160ff1991821681179092556005909201805484939192911690838181111561025d57fe5b02179055506001805480820182556000919091527fb10e2d527612073b26eecdfd717e6a320cf44b4afac2b0732d9fcbe2b7fa0cf60180546001600160a01b0319163317905560408051808201909152600f81526e155cd95c881c9959da5cdd195c9959608a1b60208201526102d290610baf565b50505050565b3360009081526020818152604090912082516102fc92600390920191840190610c16565b5050565b610308610c94565b5060408051608081018252848152602081018690529081018390526060810182905260005b825181101561038a5760008084838151811061034557fe5b6020908102919091018101516001600160a01b03168252818101929092526040016000908120600401805460018181018355918352929091209091018790550161032d565b5060008581526002602090815260409091208251805184936103b0928492910190610c16565b506020828101516001830155604083015180516103d39260028501920190610cbf565b50606082015180516103ef916003840191602090910190610d18565b5050505050505050565b6001600160a01b0381166000908152602081815260409182902060030180548351601f60026000196101006001861615020190931692909204918201849004840281018401909452808452606093928301828280156104995780601f1061046e57610100808354040283529160200191610499565b820191906000526020600020905b81548152906001019060200180831161047c57829003601f168201915b50505050509050919050565b33600090815260208181526040918290206004018054835181840281018401909452808452606093928301828280156104fd57602002820191906000526020600020905b8154815260200190600101908083116104e9575b505050505090505b90565b610510610c94565b6000828152600260208181526040928390208351815460a0601f600019610100600185161502019092169590950490810184900490930281018401909452608084018281529092849284918401828280156105ac5780601f10610581576101008083540402835291602001916105ac565b820191906000526020600020905b81548152906001019060200180831161058f57829003601f168201915b505050505081526020016001820154815260200160028201805480602002602001604051908101604052809291908181526020016000905b8282101561068f5760008481526020908190208301805460408051601f600260001961010060018716150201909416939093049283018590048502810185019091528181529283018282801561067b5780601f106106505761010080835404028352916020019161067b565b820191906000526020600020905b81548152906001019060200180831161065e57829003601f168201915b5050505050815260200190600101906105e4565b505050508152602001600382018054806020026020016040519081016040528092919081815260200182805480156106f057602002820191906000526020600020905b81546001600160a01b031681526001909101906020018083116106d2575b5050505050815250509050919050565b606061070a610c94565b6000838152600260208181526040928390208351815460a0601f600019610100600185161502019092169590950490810184900490930281018401909452608084018281529092849284918401828280156107a65780601f1061077b576101008083540402835291602001916107a6565b820191906000526020600020905b81548152906001019060200180831161078957829003601f168201915b505050505081526020016001820154815260200160028201805480602002602001604051908101604052809291908181526020016000905b828210156108895760008481526020908190208301805460408051601f60026000196101006001871615020190941693909304928301859004850281018501909152818152928301828280156108755780601f1061084a57610100808354040283529160200191610875565b820191906000526020600020905b81548152906001019060200180831161085857829003601f168201915b5050505050815260200190600101906107de565b505050508152602001600382018054806020026020016040519081016040528092919081815260200182805480156108ea57602002820191906000526020600020905b81546001600160a01b031681526001909101906020018083116108cc575b5050505050815250509050600080600090505b82606001515181101561094b57336001600160a01b03168360600151828151811061092457fe5b60200260200101516001600160a01b031614156109435780915061094b565b6001016108fd565b508160400151818151811061095c57fe5b602002602001015192505050919050565b6000602081815291815260409081902080548251601f600260001961010060018616150201909316929092049182018590048502810185019093528083529092839190830182828015610a015780601f106109d657610100808354040283529160200191610a01565b820191906000526020600020905b8154815290600101906020018083116109e457829003601f168201915b505050505090806001018054600181600116156101000203166002900480601f016020809104026020016040519081016040528092919081815260200182805460018160011615610100020316600290048015610a9f5780601f10610a7457610100808354040283529160200191610a9f565b820191906000526020600020905b815481529060010190602001808311610a8257829003601f168201915b505050506002838101546003850180546040805160206101006001851615026000190190931695909504601f8101839004830286018301909152808552959660ff90931695929450909190830182828015610b3b5780601f10610b1057610100808354040283529160200191610b3b565b820191906000526020600020905b815481529060010190602001808311610b1e57829003601f168201915b5050506005909301549192505060ff1685565b606060018054806020026020016040519081016040528092919081815260200182805480156104fd57602002820191906000526020600020905b81546001600160a01b03168152600190910190602001808311610b88575050505050905090565b610bf281604051602401610bc391906111ed565b60408051601f198184030181529190526020810180516001600160e01b031663104c13eb60e21b179052610bf5565b50565b80516a636f6e736f6c652e6c6f67602083016000808483855afa5050505050565b828054600181600116156101000203166002900490600052602060002090601f016020900481019282601f10610c5757805160ff1916838001178555610c84565b82800160010185558215610c84579182015b82811115610c84578251825591602001919060010190610c69565b50610c90929150610d79565b5090565b6040518060800160405280606081526020016000801916815260200160608152602001606081525090565b828054828255906000526020600020908101928215610d0c579160200282015b82811115610d0c5782518051610cfc918491602090910190610c16565b5091602001919060010190610cdf565b50610c90929150610d93565b828054828255906000526020600020908101928215610d6d579160200282015b82811115610d6d57825182546001600160a01b0319166001600160a01b03909116178255602090920191600190910190610d38565b50610c90929150610db6565b61050591905b80821115610c905760008155600101610d7f565b61050591905b80821115610c90576000610dad8282610dda565b50600101610d99565b61050591905b80821115610c905780546001600160a01b0319168155600101610dbc565b50805460018160011615610100020316600290046000825580601f10610e005750610bf2565b601f016020900490600052602060002090810190610bf29190610d79565b80356001600160a01b0381168114610e3557600080fd5b92915050565b600082601f830112610e4b578081fd5b8135610e5e610e5982611363565b61133c565b818152915060208083019084810181840286018201871015610e7f57600080fd5b60005b84811015610ea657610e948883610e1e565b84529282019290820190600101610e82565b505050505092915050565b600082601f830112610ec1578081fd5b813567ffffffffffffffff811115610ed7578182fd5b610eea601f8201601f191660200161133c565b9150808252836020828501011115610f0157600080fd5b8060208401602084013760009082016020015292915050565b600060208284031215610f2b578081fd5b610f358383610e1e565b9392505050565b600060208284031215610f4d578081fd5b5035919050565b60008060008060808587031215610f69578283fd5b8435935060208086013567ffffffffffffffff80821115610f88578586fd5b610f9489838a01610eb1565b95506040880135915080821115610fa9578485fd5b81880189601f820112610fba578586fd5b80359250610fca610e5984611363565b83815284810190828601885b86811015610fff57610fed8e898435880101610eb1565b84529287019290870190600101610fd6565b509097505050506060880135925080831115611019578384fd5b505061102787828801610e3b565b91505092959194509250565b600060208284031215611044578081fd5b813567ffffffffffffffff81111561105a578182fd5b61106684828501610eb1565b949350505050565b60008060008060808587031215611083578384fd5b843567ffffffffffffffff8082111561109a578586fd5b6110a688838901610eb1565b955060208701359150808211156110bb578485fd5b6110c788838901610eb1565b945060408701359150808211156110dc578384fd5b506110e987828801610eb1565b9250506060850135600281106110fd578182fd5b939692955090935050565b6000815180845260208085019450808401835b838110156111405781516001600160a01b03168752958201959082019060010161111b565b509495945050505050565b60008151808452815b8181101561117057602081850181015186830182015201611154565b818111156111815782602083870101525b50601f01601f19169290920160200192915050565b600060208252610f356020830184611108565b6020808252825182820181905260009190848201906040850190845b818110156111e1578351835292840192918401916001016111c5565b50909695505050505050565b600060208252610f35602083018461114b565b600060a0825261121360a083018861114b565b8281036020840152611225818861114b565b8615156040850152838103606085015261123f818761114b565b925050506002831061124d57fe5b8260808301529695505050505050565b6020808252818101527f53686f756c64206e6f742062652072656769737465726564206265666f726521604082015260600190565b6000602080835283516080828501526112ae60a085018261114b565b82860151604086015260408601519150601f19808683030160608701528183518084528584019150858682028501018686018896505b8287101561131257848683030184526112fe82825161114b565b6001979097019693880193915087016112e4565b5060608a01519650838982030160808a015261132e8188611108565b9a9950505050505050505050565b60405181810167ffffffffffffffff8111828210171561135b57600080fd5b604052919050565b600067ffffffffffffffff821115611379578081fd5b506020908102019056fea26469706673582212200557e613912fbc2c298c83b4a2f0f6588fdbdf50397f06b963c47ac42740fc5e64736f6c63430006070033",
  "linkReferences": {},
  "deployedLinkReferences": {}
}