{
  "_format": "hh-sol-artifact-1",
  "contractName": "Signchain",
  "sourceName": "contracts/Signchain.sol",
  "abi": [
    {
      "anonymous": false,
      "inputs": [
        {
          "indexed": false,
          "internalType": "bytes32",
          "name": "docHash",
          "type": "bytes32"
        },
        {
          "indexed": false,
          "internalType": "uint256",
          "name": "timestamp",
          "type": "uint256"
        },
        {
          "indexed": false,
          "internalType": "address",
          "name": "notary",
          "type": "address"
        }
      ],
      "name": "DocumentNatarized",
      "type": "event"
    },
    {
      "anonymous": false,
      "inputs": [
        {
          "indexed": false,
          "internalType": "bytes32",
          "name": "docHash",
          "type": "bytes32"
        },
        {
          "indexed": false,
          "internalType": "uint256",
          "name": "timestamp",
          "type": "uint256"
        },
        {
          "indexed": false,
          "internalType": "address",
          "name": "signer",
          "type": "address"
        }
      ],
      "name": "DocumentSigned",
      "type": "event"
    },
    {
      "inputs": [
        {
          "internalType": "bytes32",
          "name": "docHash",
          "type": "bytes32"
        },
        {
          "internalType": "string",
          "name": "title",
          "type": "string"
        },
        {
          "internalType": "address[]",
          "name": "signers",
          "type": "address[]"
        }
      ],
      "name": "addDocument",
      "outputs": [],
      "stateMutability": "nonpayable",
      "type": "function"
    },
    {
      "inputs": [
        {
          "internalType": "bytes32",
          "name": "docHash",
          "type": "bytes32"
        },
        {
          "internalType": "address",
          "name": "signer",
          "type": "address"
        }
      ],
      "name": "addSigner",
      "outputs": [],
      "stateMutability": "nonpayable",
      "type": "function"
    },
    {
      "inputs": [],
      "name": "getAllDocument",
      "outputs": [
        {
          "internalType": "bytes32[]",
          "name": "docHash",
          "type": "bytes32[]"
        }
      ],
      "stateMutability": "view",
      "type": "function"
    },
    {
      "inputs": [],
      "name": "getAllUsers",
      "outputs": [
        {
          "internalType": "address[]",
          "name": "users",
          "type": "address[]"
        }
      ],
      "stateMutability": "view",
      "type": "function"
    },
    {
      "inputs": [
        {
          "internalType": "bytes32",
          "name": "docHash",
          "type": "bytes32"
        }
      ],
      "name": "getCipherKey",
      "outputs": [
        {
          "internalType": "string",
          "name": "cipherKey",
          "type": "string"
        }
      ],
      "stateMutability": "view",
      "type": "function"
    },
    {
      "inputs": [
        {
          "internalType": "bytes32",
          "name": "documentHash",
          "type": "bytes32"
        }
      ],
      "name": "getDocument",
      "outputs": [
        {
          "components": [
            {
              "internalType": "string",
              "name": "documentLocation",
              "type": "string"
            },
            {
              "internalType": "bytes32",
              "name": "documentHash",
              "type": "bytes32"
            },
            {
              "internalType": "string[]",
              "name": "key",
              "type": "string[]"
            },
            {
              "internalType": "address[]",
              "name": "users",
              "type": "address[]"
            }
          ],
          "internalType": "struct DocumentRegistry.Document",
          "name": "document",
          "type": "tuple"
        }
      ],
      "stateMutability": "view",
      "type": "function"
    },
    {
      "inputs": [
        {
          "internalType": "address",
          "name": "userAddress",
          "type": "address"
        }
      ],
      "name": "getPublicKey",
      "outputs": [
        {
          "internalType": "string",
          "name": "publicKey",
          "type": "string"
        }
      ],
      "stateMutability": "view",
      "type": "function"
    },
    {
      "inputs": [
        {
          "internalType": "bytes32",
          "name": "docHash",
          "type": "bytes32"
        }
      ],
      "name": "getSignatures",
      "outputs": [
        {
          "components": [
            {
              "internalType": "address",
              "name": "signer",
              "type": "address"
            },
            {
              "internalType": "uint256",
              "name": "nonce",
              "type": "uint256"
            },
            {
              "internalType": "bytes",
              "name": "signatureDigest",
              "type": "bytes"
            },
            {
              "internalType": "uint256",
              "name": "timestamp",
              "type": "uint256"
            }
          ],
          "internalType": "struct SigningModule.Signature[]",
          "name": "",
          "type": "tuple[]"
        }
      ],
      "stateMutability": "view",
      "type": "function"
    },
    {
      "inputs": [
        {
          "internalType": "bytes32",
          "name": "docHash",
          "type": "bytes32"
        }
      ],
      "name": "getSignedDocuments",
      "outputs": [
        {
          "components": [
            {
              "internalType": "string",
              "name": "title",
              "type": "string"
            },
            {
              "internalType": "uint256",
              "name": "timestamp",
              "type": "uint256"
            },
            {
              "internalType": "address",
              "name": "owner",
              "type": "address"
            },
            {
              "internalType": "address[]",
              "name": "signers",
              "type": "address[]"
            },
            {
              "components": [
                {
                  "internalType": "address",
                  "name": "signer",
                  "type": "address"
                },
                {
                  "internalType": "uint256",
                  "name": "nonce",
                  "type": "uint256"
                },
                {
                  "internalType": "bytes",
                  "name": "signatureDigest",
                  "type": "bytes"
                },
                {
                  "internalType": "uint256",
                  "name": "timestamp",
                  "type": "uint256"
                }
              ],
              "internalType": "struct SigningModule.Signature[]",
              "name": "signatures",
              "type": "tuple[]"
            }
          ],
          "internalType": "struct SigningModule.SignedDocument",
          "name": "doc",
          "type": "tuple"
        }
      ],
      "stateMutability": "view",
      "type": "function"
    },
    {
      "inputs": [
        {
          "internalType": "bytes32",
          "name": "documentHash",
          "type": "bytes32"
        }
      ],
      "name": "isDocumentSigned",
      "outputs": [
        {
          "internalType": "bool",
          "name": "",
          "type": "bool"
        }
      ],
      "stateMutability": "view",
      "type": "function"
    },
    {
      "inputs": [
        {
          "internalType": "bytes32",
          "name": "documentHash",
          "type": "bytes32"
        }
      ],
      "name": "notarizeDoc",
      "outputs": [],
      "stateMutability": "nonpayable",
      "type": "function"
    },
    {
      "inputs": [
        {
          "internalType": "bytes32",
          "name": "documentHash",
          "type": "bytes32"
        },
        {
          "internalType": "uint256",
          "name": "nonce",
          "type": "uint256"
        },
        {
          "internalType": "bytes",
          "name": "signature",
          "type": "bytes"
        }
      ],
      "name": "notarizeDocument",
      "outputs": [],
      "stateMutability": "nonpayable",
      "type": "function"
    },
    {
      "inputs": [
        {
          "internalType": "bytes32",
          "name": "",
          "type": "bytes32"
        }
      ],
      "name": "notarizedDocs",
      "outputs": [
        {
          "internalType": "address",
          "name": "notaryAddress",
          "type": "address"
        },
        {
          "internalType": "uint256",
          "name": "notaryFee",
          "type": "uint256"
        },
        {
          "internalType": "bool",
          "name": "notarized",
          "type": "bool"
        }
      ],
      "stateMutability": "view",
      "type": "function"
    },
    {
      "inputs": [
        {
          "internalType": "string",
          "name": "userName",
          "type": "string"
        },
        {
          "internalType": "string",
          "name": "userEmail",
          "type": "string"
        },
        {
          "internalType": "string",
          "name": "publicKey",
          "type": "string"
        },
        {
          "internalType": "enum DocumentRegistry.UserType",
          "name": "userType",
          "type": "uint8"
        }
      ],
      "name": "registerUser",
      "outputs": [],
      "stateMutability": "nonpayable",
      "type": "function"
    },
    {
      "inputs": [
        {
          "internalType": "address",
          "name": "",
          "type": "address"
        }
      ],
      "name": "replayNonce",
      "outputs": [
        {
          "internalType": "uint256",
          "name": "",
          "type": "uint256"
        }
      ],
      "stateMutability": "view",
      "type": "function"
    },
    {
      "inputs": [
        {
          "internalType": "bytes32",
          "name": "documentHash",
          "type": "bytes32"
        },
        {
          "internalType": "address",
          "name": "notary",
          "type": "address"
        }
      ],
      "name": "saveNotarizeDoc",
      "outputs": [],
      "stateMutability": "payable",
      "type": "function"
    },
    {
      "inputs": [
        {
          "internalType": "bytes32",
          "name": "documentHash",
          "type": "bytes32"
        },
        {
          "internalType": "string",
          "name": "title",
          "type": "string"
        },
        {
          "internalType": "address[]",
          "name": "signers",
          "type": "address[]"
        },
        {
          "internalType": "uint256",
          "name": "nonce",
          "type": "uint256"
        },
        {
          "internalType": "bytes",
          "name": "signature",
          "type": "bytes"
        },
        {
          "internalType": "address",
          "name": "notary",
          "type": "address"
        }
      ],
      "name": "signAndShareDocument",
      "outputs": [],
      "stateMutability": "payable",
      "type": "function"
    },
    {
      "inputs": [
        {
          "internalType": "bytes32",
          "name": "docHash",
          "type": "bytes32"
        },
        {
          "internalType": "uint256",
          "name": "nonce",
          "type": "uint256"
        },
        {
          "internalType": "bytes",
          "name": "_signature",
          "type": "bytes"
        }
      ],
      "name": "signDocument",
      "outputs": [],
      "stateMutability": "nonpayable",
      "type": "function"
    },
    {
      "inputs": [
        {
          "internalType": "bytes32",
          "name": "",
          "type": "bytes32"
        }
      ],
      "name": "signedDocuments",
      "outputs": [
        {
          "internalType": "string",
          "name": "title",
          "type": "string"
        },
        {
          "internalType": "uint256",
          "name": "timestamp",
          "type": "uint256"
        },
        {
          "internalType": "address",
          "name": "owner",
          "type": "address"
        }
      ],
      "stateMutability": "view",
      "type": "function"
    },
    {
      "inputs": [
        {
          "internalType": "address",
          "name": "",
          "type": "address"
        }
      ],
      "name": "storeUser",
      "outputs": [
        {
          "internalType": "string",
          "name": "name",
          "type": "string"
        },
        {
          "internalType": "string",
          "name": "email",
          "type": "string"
        },
        {
          "internalType": "bool",
          "name": "status",
          "type": "bool"
        },
        {
          "internalType": "string",
          "name": "publicKey",
          "type": "string"
        },
        {
          "internalType": "enum DocumentRegistry.UserType",
          "name": "userType",
          "type": "uint8"
        }
      ],
      "stateMutability": "view",
      "type": "function"
    },
    {
      "inputs": [
        {
          "internalType": "string",
          "name": "key",
          "type": "string"
        }
      ],
      "name": "updatePublicKey",
      "outputs": [],
      "stateMutability": "nonpayable",
      "type": "function"
    },
    {
      "inputs": [
        {
          "internalType": "bytes32",
          "name": "documentHash",
          "type": "bytes32"
        },
        {
          "internalType": "string",
          "name": "documentLocation",
          "type": "string"
        },
        {
          "internalType": "string[]",
          "name": "key",
          "type": "string[]"
        },
        {
          "internalType": "address[]",
          "name": "users",
          "type": "address[]"
        }
      ],
      "name": "uploadDocument",
      "outputs": [],
      "stateMutability": "nonpayable",
      "type": "function"
    }
  ],
  "bytecode": "0x608060405267016345785d8a000060055534801561001c57600080fd5b506127b88061002c6000396000f3fe6080604052600436106101355760003560e01c8063949a09ee116100ab578063b10d6b411161006f578063b10d6b411461036e578063b5a441d71461039b578063d00f74c5146103ca578063d7cab338146103ea578063e2842d791461041b578063f85008881461043d57610135565b8063949a09ee146102bf5780639bc51068146102ec578063ab53742014610319578063ad91ba3b14610339578063af045d6c1461034c57610135565b806367d407df116100fd57806367d407df146101dc57806369b4da2d1461021257806372a60697146102325780637dab0aae1461025f57806383080fd014610272578063857cdbb81461029257610135565b8063092a60841461013a5780630f7714171461015c5780631adb31e91461017c5780631dc6fa5e1461019c578063444fdb93146101bc575b600080fd5b34801561014657600080fd5b5061015a610155366004611e7d565b61046c565b005b34801561016857600080fd5b5061015a61017736600461211f565b6104ae565b34801561018857600080fd5b5061015a6101973660046120a0565b610609565b3480156101a857600080fd5b5061015a6101b73660046120e4565b6106e2565b3480156101c857600080fd5b5061015a6101d7366004611eac565b61070a565b3480156101e857600080fd5b506101fc6101f7366004611e43565b61077b565b604051610209919061271d565b60405180910390f35b34801561021e57600080fd5b5061015a61022d366004611fc1565b61078d565b34801561023e57600080fd5b5061025261024d366004611e65565b610886565b6040516102099190612390565b61015a61026d366004611f16565b6108a6565b34801561027e57600080fd5b5061015a61028d3660046120a0565b61095b565b34801561029e57600080fd5b506102b26102ad366004611e43565b610b5d565b60405161020991906123e6565b3480156102cb57600080fd5b506102df6102da366004611e65565b610c09565b60405161020991906126a1565b3480156102f857600080fd5b5061030c610307366004611e65565b610e70565b604051610209919061237d565b34801561032557600080fd5b5061015a610334366004611e65565b610f9d565b61015a610347366004611e7d565b611029565b34801561035857600080fd5b506103616110b2565b6040516102099190612339565b34801561037a57600080fd5b5061038e610389366004611e65565b611115565b60405161020991906125f7565b3480156103a757600080fd5b506103bb6103b6366004611e65565b61130d565b60405161020993929190612456565b3480156103d657600080fd5b506102b26103e5366004611e65565b6113c4565b3480156103f657600080fd5b5061040a610405366004611e43565b611631565b6040516102099594939291906123f9565b34801561042757600080fd5b50610430611812565b6040516102099190612326565b34801561044957600080fd5b5061045d610458366004611e65565b611873565b60405161020993929190612303565b600091825260036020818152604084209091018054600181018255908452922090910180546001600160a01b0319166001600160a01b03909216919091179055565b3360009081526020819052604090206002015460ff16156104ea5760405162461bcd60e51b81526004016104e190612489565b60405180910390fd5b33600090815260208181526040909120855161050892870190611adc565b5033600090815260208181526040909120845161052d92600190920191860190611adc565b5033600090815260208181526040909120835161055292600390920191850190611adc565b50336000908152602081905260409020600281018054600160ff1991821681179092556005909201805484939192911690838181111561058e57fe5b02179055506001805480820182556000919091527fb10e2d527612073b26eecdfd717e6a320cf44b4afac2b0732d9fcbe2b7fa0cf60180546001600160a01b0319163317905560408051808201909152600f81526e155cd95c881c9959da5cdd195c9959608a1b6020820152610603906118a1565b50505050565b60013360009081526020819052604090206005015460ff16600181111561062c57fe5b146106495760405162461bcd60e51b81526004016104e1906124ee565b61065483838361095b565b60008381526006602052604080822060028101805460ff1916600190811790915501549051339282156108fc02929190818181858888f193505050501580156106a1573d6000803e3d6000fd5b507f149f677711f6b4705dd77e1863bc88083e35a427728559a9f8286cde89d2fb8f8342336040516106d5939291906123a9565b60405180910390a1505050565b33600090815260208181526040909120825161070692600390920191840190611adc565b5050565b6000838152600360209081526040909120426001820155835161072f92850190611adc565b506000838152600360208181526040909220835161075593919092019190840190611b5a565b505050600090815260036020526040902060020180546001600160a01b03191633179055565b60046020526000908152604090205481565b610795611bbb565b5060408051608081018252848152602081018690529081018390526060810182905260005b8251811015610817576000808483815181106107d257fe5b6020908102919091018101516001600160a01b0316825281810192909252604001600090812060040180546001818101835591835292909120909101879055016107ba565b50600085815260026020908152604090912082518051849361083d928492910190611adc565b506020828101516001830155604083015180516108609260028501920190611be6565b506060820151805161087c916003840191602090910190611b5a565b5050505050505050565b60008181526003602081905260409091206004810154910154145b919050565b6001600160a01b0381161561093d5760055434146108d65760405162461bcd60e51b81526004016104e19061251c565b604080516060810182526001600160a01b03838116825234602080840191825260008486018181528c8252600690925294909420925183546001600160a01b031916921691909117825551600182015590516002909101805460ff19169115159190911790555b61094886868661070a565b61095386848461095b565b505050505050565b6000838152600360205260409020600101548390839061098d5760405162461bcd60e51b81526004016104e1906124be565b3360009081526004602052604090205481146109a857600080fd5b6109b1826118e7565b15156001146109d25760405162461bcd60e51b81526004016104e190612577565b6109db8261195c565b15156001146109fc5760405162461bcd60e51b81526004016104e190612548565b60008585604051602001610a1192919061239b565b604051602081830303815290604052805190602001209050336001600160a01b0316610a3d82866119d4565b6001600160a01b031614610a635760405162461bcd60e51b81526004016104e1906125ae565b610a6b611c3f565b5060408051608081018252338152602080820188815282840188815242606085015260008b81526003845294852060049081018054600180820183559188529685902086519790920290910180546001600160a01b0319166001600160a01b03909716969096178655915191850191909155518051929384939092610af7926002850192910190611adc565b5060609190910151600390910155336000818152600460205260409081902080546001019055517ef3b87f65ec8d6850d6992565419348c455ef2c5808f3c24b58887b7df72d5591610b4c918a9142916123a9565b60405180910390a150505050505050565b6001600160a01b0381166000908152602081815260409182902060030180548351601f6002600019610100600186161502019093169290920491820184900484028101840190945280845260609392830182828015610bfd5780601f10610bd257610100808354040283529160200191610bfd565b820191906000526020600020905b815481529060010190602001808311610be057829003601f168201915b50505050509050919050565b610c11611c70565b6000828152600360209081526040918290208251815460026001821615610100026000190190911604601f8101849004909302810160c090810190945260a08101838152909391928492849190840182828015610caf5780601f10610c8457610100808354040283529160200191610caf565b820191906000526020600020905b815481529060010190602001808311610c9257829003601f168201915b50505050508152602001600182015481526020016002820160009054906101000a90046001600160a01b03166001600160a01b03166001600160a01b0316815260200160038201805480602002602001604051908101604052809291908181526020018280548015610d4a57602002820191906000526020600020905b81546001600160a01b03168152600190910190602001808311610d2c575b5050505050815260200160048201805480602002602001604051908101604052809291908181526020016000905b82821015610e62576000848152602090819020604080516080810182526004860290920180546001600160a01b03168352600180820154848601526002808301805485516101009482161594909402600019011691909104601f8101879004870283018701855280835294959294938601939192909190830182828015610e405780601f10610e1557610100808354040283529160200191610e40565b820191906000526020600020905b815481529060010190602001808311610e2357829003601f168201915b5050505050815260200160038201548152505081526020019060010190610d78565b505050915250909392505050565b606060036000838152602001908152602001600020600401805480602002602001604051908101604052809291908181526020016000905b82821015610f92576000848152602090819020604080516080810182526004860290920180546001600160a01b03168352600180820154848601526002808301805485516101009482161594909402600019011691909104601f8101879004870283018701855280835294959294938601939192909190830182828015610f705780601f10610f4557610100808354040283529160200191610f70565b820191906000526020600020905b815481529060010190602001808311610f5357829003601f168201915b5050505050815260200160038201548152505081526020019060010190610ea8565b505050509050919050565b60008181526006602052604080822060028101805460ff1916600190811790915501549051339282156108fc02929190818181858888f19350505050158015610fea573d6000803e3d6000fd5b507f149f677711f6b4705dd77e1863bc88083e35a427728559a9f8286cde89d2fb8f81423360405161101e939291906123a9565b60405180910390a150565b600554341461104a5760405162461bcd60e51b81526004016104e19061251c565b604080516060810182526001600160a01b0392831681523460208083019182526000838501818152968152600690915292909220905181546001600160a01b031916931692909217825551600182015590516002909101805460ff1916911515919091179055565b336000908152602081815260409182902060040180548351818402810184019094528084526060939283018282801561110a57602002820191906000526020600020905b8154815260200190600101908083116110f6575b505050505090505b90565b61111d611bbb565b6000828152600260208181526040928390208351815460a0601f600019610100600185161502019092169590950490810184900490930281018401909452608084018281529092849284918401828280156111b95780601f1061118e576101008083540402835291602001916111b9565b820191906000526020600020905b81548152906001019060200180831161119c57829003601f168201915b505050505081526020016001820154815260200160028201805480602002602001604051908101604052809291908181526020016000905b8282101561129c5760008481526020908190208301805460408051601f60026000196101006001871615020190941693909304928301859004850281018501909152818152928301828280156112885780601f1061125d57610100808354040283529160200191611288565b820191906000526020600020905b81548152906001019060200180831161126b57829003601f168201915b5050505050815260200190600101906111f1565b505050508152602001600382018054806020026020016040519081016040528092919081815260200182805480156112fd57602002820191906000526020600020905b81546001600160a01b031681526001909101906020018083116112df575b5050505050815250509050919050565b60036020908152600091825260409182902080548351601f600260001961010060018616150201909316929092049182018490048402810184019094528084529092918391908301828280156113a45780601f10611379576101008083540402835291602001916113a4565b820191906000526020600020905b81548152906001019060200180831161138757829003601f168201915b5050505060018301546002909301549192916001600160a01b0316905083565b60606113ce611bbb565b6000838152600260208181526040928390208351815460a0601f6000196101006001851615020190921695909504908101849004909302810184019094526080840182815290928492849184018282801561146a5780601f1061143f5761010080835404028352916020019161146a565b820191906000526020600020905b81548152906001019060200180831161144d57829003601f168201915b505050505081526020016001820154815260200160028201805480602002602001604051908101604052809291908181526020016000905b8282101561154d5760008481526020908190208301805460408051601f60026000196101006001871615020190941693909304928301859004850281018501909152818152928301828280156115395780601f1061150e57610100808354040283529160200191611539565b820191906000526020600020905b81548152906001019060200180831161151c57829003601f168201915b5050505050815260200190600101906114a2565b505050508152602001600382018054806020026020016040519081016040528092919081815260200182805480156115ae57602002820191906000526020600020905b81546001600160a01b03168152600190910190602001808311611590575b5050505050815250509050600080600090505b82606001515181101561160f57336001600160a01b0316836060015182815181106115e857fe5b60200260200101516001600160a01b031614156116075780915061160f565b6001016115c1565b508160400151818151811061162057fe5b602002602001015192505050919050565b6000602081815291815260409081902080548251601f6002600019610100600186161502019093169290920491820185900485028101850190935280835290928391908301828280156116c55780601f1061169a576101008083540402835291602001916116c5565b820191906000526020600020905b8154815290600101906020018083116116a857829003601f168201915b505050505090806001018054600181600116156101000203166002900480601f0160208091040260200160405190810160405280929190818152602001828054600181600116156101000203166002900480156117635780601f1061173857610100808354040283529160200191611763565b820191906000526020600020905b81548152906001019060200180831161174657829003601f168201915b505050506002838101546003850180546040805160206101006001851615026000190190931695909504601f8101839004830286018301909152808552959660ff909316959294509091908301828280156117ff5780601f106117d4576101008083540402835291602001916117ff565b820191906000526020600020905b8154815290600101906020018083116117e257829003601f168201915b5050506005909301549192505060ff1685565b6060600180548060200260200160405190810160405280929190818152602001828054801561110a57602002820191906000526020600020905b81546001600160a01b0316815260019091019060200180831161184c575050505050905090565b6006602052600090815260409020805460018201546002909201546001600160a01b03909116919060ff1683565b6118e4816040516024016118b591906123e6565b60408051601f198184030181529190526020810180516001600160e01b031663104c13eb60e21b179052611abb565b50565b6000805b600083815260036020819052604090912001548110156119535760008381526003602081905260409091200180543391908390811061192657fe5b6000918252602090912001546001600160a01b0316141561194b5760019150506108a1565b6001016118eb565b50600092915050565b6000805b6000838152600360205260409020600401548110156119cb57600083815260036020526040902060040180543391908390811061199957fe5b60009182526020909120600490910201546001600160a01b031614156119c35760009150506108a1565b600101611960565b50600192915050565b60008060008084516041146119ef5760009350505050611ab5565b50505060208201516040830151606084015160001a601b811015611a1157601b015b8060ff16601b14158015611a2957508060ff16601c14155b15611a3a5760009350505050611ab5565b600186604051602001611a4d91906122d2565b6040516020818303038152906040528051906020012082858560405160008152602001604052604051611a8394939291906123c8565b6020604051602081039080840390855afa158015611aa5573d6000803e3d6000fd5b5050506020604051035193505050505b92915050565b80516a636f6e736f6c652e6c6f67602083016000808483855afa5050505050565b828054600181600116156101000203166002900490600052602060002090601f016020900481019282601f10611b1d57805160ff1916838001178555611b4a565b82800160010185558215611b4a579182015b82811115611b4a578251825591602001919060010190611b2f565b50611b56929150611ca8565b5090565b828054828255906000526020600020908101928215611baf579160200282015b82811115611baf57825182546001600160a01b0319166001600160a01b03909116178255602090920191600190910190611b7a565b50611b56929150611cc2565b6040518060800160405280606081526020016000801916815260200160608152602001606081525090565b828054828255906000526020600020908101928215611c33579160200282015b82811115611c335782518051611c23918491602090910190611adc565b5091602001919060010190611c06565b50611b56929150611ce6565b604051806080016040528060006001600160a01b031681526020016000815260200160608152602001600081525090565b6040518060a00160405280606081526020016000815260200160006001600160a01b0316815260200160608152602001606081525090565b61111291905b80821115611b565760008155600101611cae565b61111291905b80821115611b565780546001600160a01b0319168155600101611cc8565b61111291905b80821115611b56576000611d008282611d09565b50600101611cec565b50805460018160011615610100020316600290046000825580601f10611d2f57506118e4565b601f0160209004906000526020600020908101906118e49190611ca8565b80356001600160a01b0381168114611ab557600080fd5b600082601f830112611d74578081fd5b8135611d87611d828261274d565b612726565b818152915060208083019084810181840286018201871015611da857600080fd5b60005b84811015611dcf57611dbd8883611d4d565b84529282019290820190600101611dab565b505050505092915050565b600082601f830112611dea578081fd5b813567ffffffffffffffff811115611e00578182fd5b611e13601f8201601f1916602001612726565b9150808252836020828501011115611e2a57600080fd5b8060208401602084013760009082016020015292915050565b600060208284031215611e54578081fd5b611e5e8383611d4d565b9392505050565b600060208284031215611e76578081fd5b5035919050565b60008060408385031215611e8f578081fd5b823591506020830135611ea18161276d565b809150509250929050565b600080600060608486031215611ec0578081fd5b83359250602084013567ffffffffffffffff80821115611ede578283fd5b611eea87838801611dda565b93506040860135915080821115611eff578283fd5b50611f0c86828701611d64565b9150509250925092565b60008060008060008060c08789031215611f2e578182fd5b86359550602087013567ffffffffffffffff80821115611f4c578384fd5b611f588a838b01611dda565b96506040890135915080821115611f6d578384fd5b611f798a838b01611d64565b9550606089013594506080890135915080821115611f95578384fd5b50611fa289828a01611dda565b92505060a0870135611fb38161276d565b809150509295509295509295565b60008060008060808587031215611fd6578384fd5b8435935060208086013567ffffffffffffffff80821115611ff5578586fd5b61200189838a01611dda565b95506040880135915080821115612016578485fd5b81880189601f820112612027578586fd5b80359250612037611d828461274d565b83815284810190828601885b8681101561206c5761205a8e898435880101611dda565b84529287019290870190600101612043565b509097505050506060880135925080831115612086578384fd5b505061209487828801611d64565b91505092959194509250565b6000806000606084860312156120b4578283fd5b8335925060208401359150604084013567ffffffffffffffff8111156120d8578182fd5b611f0c86828701611dda565b6000602082840312156120f5578081fd5b813567ffffffffffffffff81111561210b578182fd5b61211784828501611dda565b949350505050565b60008060008060808587031215612134578384fd5b843567ffffffffffffffff8082111561214b578586fd5b61215788838901611dda565b9550602087013591508082111561216c578485fd5b61217888838901611dda565b9450604087013591508082111561218d578384fd5b5061219a87828801611dda565b9250506060850135600281106121ae578182fd5b939692955090935050565b6000815180845260208085019450808401835b838110156121f15781516001600160a01b0316875295820195908201906001016121cc565b509495945050505050565b6000815180845260208085018081965082840281019150828601855b8581101561227a578284038952815180516001600160a01b0316855285810151868601526040808201516080828801819052919061225883890182612287565b6060948501519890940197909752505098850198935090840190600101612218565b5091979650505050505050565b60008151808452815b818110156122ac57602081850181015186830182015201612290565b818111156122bd5782602083870101525b50601f01601f19169290920160200192915050565b7f19457468657265756d205369676e6564204d6573736167653a0a3332000000008152601c810191909152603c0190565b6001600160a01b0393909316835260208301919091521515604082015260600190565b600060208252611e5e60208301846121b9565b6020808252825182820181905260009190848201906040850190845b8181101561237157835183529284019291840191600101612355565b50909695505050505050565b600060208252611e5e60208301846121fc565b901515815260200190565b918252602082015260400190565b92835260208301919091526001600160a01b0316604082015260600190565b93845260ff9290921660208401526040830152606082015260800190565b600060208252611e5e6020830184612287565b600060a0825261240c60a0830188612287565b828103602084015261241e8188612287565b861515604085015283810360608501526124388187612287565b925050506002831061244657fe5b8260808301529695505050505050565b6000606082526124696060830186612287565b6020830194909452506001600160a01b0391909116604090910152919050565b6020808252818101527f53686f756c64206e6f742062652072656769737465726564206265666f726521604082015260600190565b602080825260169082015275111bd8dd5b595b9d08191bd95cdb89dd08195e1a5cdd60521b604082015260600190565b60208082526014908201527355736572206973206e6f742061206e6f7461727960601b604082015260600190565b602080825260129082015271496e76616c6964204e6f746172792046656560701b604082015260600190565b60208082526015908201527414da59db995c88185b1c9958591e481cda59db9959605a1b604082015260600190565b60208082526017908201527f4e6f7420696e20746865207369676e657273206c697374000000000000000000604082015260600190565b60208082526029908201527f5369676e617475726520776173206e6f74207369676e6564206279207468652060408201526834b734ba34b0ba37b960b91b606082015260800190565b60006020808352835160808285015261261360a0850182612287565b82860151604086015260408601519150601f19808683030160608701528183518084528584019150858682028501018686018896505b828710156126775784868303018452612663828251612287565b600197909701969388019391508701612649565b5060608a01519650838982030160808a015261269381886121b9565b9a9950505050505050505050565b600060208252825160a060208401526126bd60c0840182612287565b6020850151604085015260018060a01b03604086015116606085015260608501519150601f19808583030160808601526126f782846121b9565b60808701519350818682030160a087015261271281856121fc565b979650505050505050565b90815260200190565b60405181810167ffffffffffffffff8111828210171561274557600080fd5b604052919050565b600067ffffffffffffffff821115612763578081fd5b5060209081020190565b6001600160a01b03811681146118e457600080fdfea2646970667358221220697e9bd16b5eb191855774f9b04c906aa50eb1d6dd57be6a5f0bb3c3223dd7f564736f6c63430006070033",
  "linkReferences": {},
  "deployedLinkReferences": {}
}